:020000040800F2
:10000000000008242D4801088148010881480108A2
:10001000814801088148010881480108000000006A
:1000200000000000000000000000000081480108FE
:10003000814801080000000081480108530E0108B2
:100040008148010881480108814801088148010868
:1000500081480108814801082D1101083311010868
:10006000391101083F110108451101085D640008BC
:10007000696400088148010875640008816400080B
:100080008148010881480108814801088148010828
:100090008148010881480108814801084B11010885
:1000A000814801081DFB00088148010831FB000858
:1000B00035FB000849FB00085DFB00084D74000893
:1000C00059740008657400087174000881480108BB
:1000D00081480108A9220108C1220108DD22010886
:1000E000731101088148010800000000E5FB0008C9
:1000F000ADFB0008F9FB0008D1FB000881480108AE
:10010000814801088148010871FB00088148010805
:10011000F92201081123010885FB000899FB00085A
:100120008148010881480108814801088148010887
:100130008148010881480108814801088148010877
:1001400000000000000000000000000000000000AF
:1001500081480108814801088148010829230108D4
:100160007D740008897400088148010881480108ED
:100170008148010881480108814801088148010837
:1001800081480108814801085923010871230108A9
:100190008148010881480108814801088148010817
:1001A0008148010881480108814801088148010807
:1001B0009D5F000881480108814801089574000886
:1001C000B17400088148010881480108814801088C
:1001D000B12F0108A52F01088148010881480108B5
:1001E00081480108814801088148010881480108C7
:1001F00081480108814801088148010881480108B7
:1002000081480108814801088148010881480108A6
:100210000DFC000821FC000835FC0008814801089D
:100220008148010881480108814801080000000058
:100230008148010881480108000000008148010848
:100240008148010881480108814801088148010866
:100250008148010881480108814801088148010856
:100260008148010881480108814801088148010846
:10027000814801088148010841230108000000006D
:1002800081480108814801088148010800000000F8
:08029000000000008148010894
:1002A000034613F8012B002AFBD1181A01387047B6
:1002B00001F0FF01102A2BDB10F0070F08D010F817
:1002C000013B013A8B422DD010F0070F42B3F6D11B
:1002D000F0B441EA012141EA014122F007047FF034
:1002E00000070023F0E80256083C85EA010586EA8B
:1002F000010685FA47F5A3FA87F586FA47F6A5FAC7
:1003000087F68EB9EED1F0BC01F0FF0102F00702D2
:1003100032B110F8013B013A83EA010313B1F8D17D
:100320000020704701387047002D06BF354603385E
:10033000073815F0010F07D1013015F4807F02BF97
:10034000013015F4C03F0130F0BC0138704700BFE8
:1003500081F0004102E000BF83F0004330B54FEA76
:1003600041044FEA430594EA050F08BF90EA020FE3
:100370001FBF54EA000C55EA020C7FEA645C7FEA76
:10038000655C00F0E2804FEA5454D4EB5555B8BF99
:100390006D420CDD2C4480EA020281EA030382EA0A
:1003A000000083EA010180EA020281EA0303362D9C
:1003B00088BF30BD11F0004F4FEA01314FF4801C6F
:1003C0004CEA113102D0404261EB410113F0004F81
:1003D0004FEA03334CEA133302D0524263EB430338
:1003E00094EA050F00F0A780A4F10104D5F1200ED6
:1003F0000DDB02FA0EFC22FA05F2801841F1000131
:1004000003FA0EF2801843FA05F359410EE0A5F104
:1004100020050EF1200E012A03FA0EFC28BF4CF035
:10042000020C43FA05F3C01851EBE37101F00045EB
:1004300007D54FF0000EDCF1000C7EEB00006EEBF8
:100440000101B1F5801F1BD3B1F5001F0CD3490882
:100450005FEA30004FEA3C0C04F101044FEA4452D9
:1004600012F5800F80F09A80BCF1004F08BF5FEA60
:10047000500C50F1000041EB045141EA050130BD40
:100480005FEA4C0C404141EB0101013C28BFB1F552
:10049000801FE9D291F0000F04BF01460020B1FA9D
:1004A00081F308BF2033A3F10B03B3F120020CDA70
:1004B0000C3208DD02F1140CC2F10C0201FA0CF04E
:1004C00021FA02F10CE002F11402D8BFC2F1200CB3
:1004D00001FA02F120FA0CFCDCBF41EA0C01904069
:1004E000E41AA2BF01EB0451294330BD6FEA0404B2
:1004F0001F3C1CDA0C340EDC04F11404C4F120029D
:1005000020FA04F001FA02F340EA030021FA04F3AE
:1005100045EA030130BDC4F10C04C4F1200220FA05
:1005200002F001FA04F340EA0300294630BD21FA43
:1005300004F0294630BD94F0000F83F4801306BF09
:1005400081F480110134013D4EE77FEA645C18BFFD
:100550007FEA655C29D094EA050F08BF90EA020F94
:1005600005D054EA000C04BF1946104630BD91EA8C
:10057000030F1EBF0021002030BD5FEA545C05D18F
:100580004000494128BF41F0004130BD14F58004CE
:100590003CBF01F5801130BD01F0004545F0FE4142
:1005A00041F470014FF0000030BD7FEA645C1ABF77
:1005B000194610467FEA655C1CBF0B46024650EAAE
:1005C000013406BF52EA033591EA030F41F40021DA
:1005D00030BD00BF90F0000F04BF0021704730B560
:1005E0004FF4806404F132044FF000054FF0000135
:1005F00050E700BF90F0000F04BF0021704730B5F6
:100600004FF4806404F1320410F0004548BF4042CA
:100610004FF000013EE700BF42004FEAE2014FEA1F
:1006200031014FEA02701FBF12F07F4393F07F4FFA
:1006300081F06051704732F07F4208BF704793F0FD
:100640007F4F04BF41F40021704730B54FF4607410
:1006500001F0004521F000411CE700BF50EA010213
:1006600008BF704730B54FF000050AE050EA0102BC
:1006700008BF704730B511F0004502D5404261EB2C
:1006800041014FF4806404F132045FEA915C3FF46D
:10069000D8AE4FF003025FEADC0C18BF03325FEA0A
:1006A000DC0C18BF033202EBDC02C2F1200300FABB
:1006B00003FC20FA02F001FA03FE40EA0E0021FAE0
:1006C00002F11444BDE600BF70B54FF0FF0C4CF4CE
:1006D000E06C1CEA11541DBF1CEA135594EA0C0F80
:1006E00095EA0C0F00F0DEF82C4481EA030621EABB
:1006F0004C5123EA4C5350EA013518BF52EA0335F6
:1007000041F4801143F4801338D0A0FB02CE4FF0A7
:100710000005E1FB02E506F00042E0FB03E54FF0D7
:100720000006E1FB03569CF0000F18BF4EF0010ECF
:10073000A4F1FF04B6F5007F64F5407404D25FEACB
:100740004E0E6D4146EB060642EAC62141EA55517E
:100750004FEAC52040EA5E504FEACE2EB4F1FD0CC0
:1007600088BFBCF5E06F1ED8BEF1004F08BF5FEA3E
:10077000500E50F1000041EB045170BD06F00046F0
:1007800046EA010140EA020081EA0301B4EB5C049D
:10079000C2BFD4EB0C0541EA045170BD41F4801195
:1007A0004FF0000E013C00F3AB8014F1360FDEBFBA
:1007B000002001F0004170BDC4F10004203C35DA96
:1007C0000C341BDC04F11404C4F1200500FA05F319
:1007D00020FA04F001FA05F240EA020001F00042BA
:1007E00021F0004110EBD37021FA04F642EB060130
:1007F0005EEA430E08BF20EAD37070BDC4F10C045A
:10080000C4F1200500FA04F320FA05F001FA04F21D
:1008100040EA020001F0004110EBD37041F1000109
:100820005EEA430E08BF20EAD37070BDC4F1200514
:1008300000FA05F24EEA020E20FA04F301FA05F27C
:1008400043EA020321FA04F001F0004121FA04F224
:1008500020EA020000EBD3705EEA430E08BF20EAF4
:10086000D37070BD94F0000F0FD101F0004640002E
:1008700041EB010111F4801F08BF013CF7D041EAB0
:10088000060195F0000F18BF704703F000465200B4
:1008900043EB030313F4801F08BF013DF7D043EA85
:1008A0000603704794EA0C0F0CEA135518BF95EA3B
:1008B0000C0F0CD050EA410618BF52EA4306D1D1C2
:1008C00081EA030101F000414FF0000070BD50EAE1
:1008D000410606BF1046194652EA430619D094EA6B
:1008E0000C0F02D150EA013613D195EA0C0F05D155
:1008F00052EA03361CBF104619460AD181EA0301A9
:1009000001F0004141F0FE4141F470014FF0000060
:1009100070BD41F0FE4141F4780170BD70B54FF0FB
:10092000FF0C4CF4E06C1CEA11541DBF1CEA13557B
:1009300094EA0C0F95EA0C0F00F0A7F8A4EB05045D
:1009400081EA030E52EA03354FEA013100F0888054
:100950004FEA03334FF0805545EA131343EA12631D
:100960004FEA022245EA111545EA10654FEA0026D2
:100970000EF000419D4208BF964244F1FD0404F58B
:10098000407402D25B084FEA3202B61A65EB0305E7
:100990005B084FEA32024FF480104FF4002CB6EBA4
:1009A000020E75EB030E22BFB61A754640EA0C0024
:1009B0005B084FEA3202B6EB020E75EB030E22BF64
:1009C000B61A754640EA5C005B084FEA3202B6EBA5
:1009D000020E75EB030E22BFB61A754640EA9C0064
:1009E0005B084FEA3202B6EB020E75EB030E22BF34
:1009F000B61A754640EADC0055EA060E18D04FEAF2
:100A0000051545EA16754FEA06164FEAC30343EA91
:100A100052734FEAC2025FEA1C1CC0D111F4801F5E
:100A20000BD141EA00014FF000004FF0004CB6E757
:100A300011F4801F04BF01430020B4F1FD0C88BFF6
:100A4000BCF5E06F3FF6AFAEB5EB030C04BFB6EB01
:100A5000020C5FEA500C50F1000041EB045170BDF4
:100A60000EF0004E4EEA113114EB5C04C2BFD4EB21
:100A70000C0541EA045170BD41F480114FF0000EA5
:100A8000013C90E645EA060E8DE60CEA135594EA21
:100A90000C0F08BF95EA0C0F3FF43BAF94EA0C0F24
:100AA0000AD150EA01347FF434AF95EA0C0F7FF499
:100AB00025AF104619462CE795EA0C0F06D152EAED
:100AC00003353FF4FDAE1046194622E750EA4106D1
:100AD00018BF52EA43067FF4C5AE50EA41047FF4E2
:100AE0000DAF52EA43057FF4EBAE12E74FEA410245
:100AF000B2F1E04324BFB3F5001CDCF1FE5C0DD97C
:100B000001F0004C4FEAC0024CEA5070B2F1004FC5
:100B100040EB830008BF20F00100704711F0804FC8
:100B200021D113F13872BCBF01F00040704741F48D
:100B300080114FEA5252C2F11802C2F1200C10FA91
:100B40000CF320FA02F018BF40F001004FEAC12375
:100B50004FEAD32303FA0CFC40EA0C0023FA02F319
:100B60004FEA4303CCE77FEA625307D150EA0133EF
:100B70001EBF4FF0FE4040F44000704701F00040BF
:100B800040F0FE4040F40000704700BF53B94AB93E
:100B9000002908BF00281CBF4FF0FF314FF0FF3085
:100BA00000F00CB8ADF1080C6DE904CE16F022FF90
:100BB000DDF804E0DDE9022304B07047704700BFB0
:100BC00010B5054C237833B9044B13B10448AFF387
:100BD00000800123237010BD80120024000000005B
:100BE000F47C010808B5034B1BB103490348AFF37C
:100BF000008008BD0000000084120024F47C01087D
:100C000008B50A4B186813F005FFB0FA80F0084BDE
:100C1000084A4009187013680133012B136003D18F
:100C200013F034FF044B186008BD00BFC40A002451
:100C30006F1E0024581D0024541D0024012A02D1D7
:100C4000016000207047022A05D0032AF9D0002A4B
:100C5000F7D10260F5E70B680360F2E70368184715
:100C60000022074902604260C260C26102624262C1
:100C7000002281600161416181618285704700BF0E
:100C8000000080BFDFED087AF2EE080A30EE670A56
:100C900008B5C0EE200AB0EE000A15F015F8DFED39
:100CA000037A20EE270A08BD00008A420000DC43D8
:100CB000B7EE007A4FF07C5310B5C7EE007A80EDA6
:100CC000030A436000239FED090A0446436180ED57
:100CD000020AC0ED047A03F0D1FE002384ED060A77
:100CE000237040F20113A38410BD00BF0000C8426E
:100CF00010B5044680ED020A03F0C0FE84ED060A3A
:100D000010BD00000A4B01220A4910B51A700023D9
:100D1000094A00241360094A1360094A106898427E
:100D200002DC084B136010BD013341F8044BF6E7B9
:100D3000A90A0024000000C0381E0024341E00242C
:100D4000A40A002400BADB00F8B5144B10EE105AC8
:100D5000134C1B6804EB83042068FFF75DFC002242
:100D6000104BFFF7B1FC06460F462846FFF754FC30
:100D700000220C4BFFF7A8FC0B46024639463046D2
:100D8000FFF7ECFAFFF7B2FE074B20601B781BB1B0
:100D9000064A136801331360F8BD00BF381E0024F3
:100DA000000000C00000E03FA90A0024341E002417
:100DB000214B1B7870B5044608462DED028BB0EE32
:100DC000408A1BB1FFF7C0FF84ED008A1B4B1C4912
:100DD0001A688A4205DB00221A4802701A481A6013
:100DE00001601A4D297889B9194A174813680068B3
:100DF000013393FBF0F600FB16331360B3F5FA6F83
:100E0000144AD8BF0121106813F0CEFD124B1B7895
:100E100053B10F4B1A68114B03EB8203D3ED007AE9
:100E200077EE887AC4ED007A2B780BB184ED008AD6
:100E3000BDEC028B70BD00BF3D1E0024341E00249B
:100E400000BADB00A90A0024A40A0024A80A00248E
:100E5000381E0024C00A00243C1E0024000000C0EC
:100E60002DE9F04F2DED088B9FED438AA7B00E467C
:100E70001746B0EE48AA00258DED028ABD4204D186
:100E800027B0BDEC088BBDE8F08F3C4803F08EFB2B
:100E90003B4B0038DFF810811B7818BF012088F821
:100EA0000000042B00F2D780DFE813F005005002A9
:100EB000FE02A4028400DFF8F4A00024314ADFF827
:100EC000F0B0314B4FEA8409115D53F8240003F070
:100ED000D1FA5BF82400B0EE408A03F0DBFC5AF84C
:100EE000040B033403F0C2FB0EA9284B28EE008A42
:100EF00001EB0900182C9944224AD9ED007A67EEDB
:100F0000887AC0ED007ADCD10B4600229FED1A8A68
:100F1000194601320C33D1ED007A082A38EE278ABF
:100F2000F6D11B4C0DF118091A4BDFF874B0DFF83D
:100F300074A013F8011B54F8040B019303F09AFA00
:100F40005BF8040B03F0A6FCFAEC017A124A20EEDF
:100F5000270A019B9442A9EC010AEAD1DDED067A49
:100F60009DED077A77EE8A7A9DED080A0B4C77EEB5
:100F7000877A37EE800A67E00000000060330024C3
:100F8000E21D002464260024680E0024D0320024D0
:100F9000240E0024DC240024300E002448210024E8
:100FA000E00E0024B032002410190024F80D0024B3
:100FB000000F0024DFF878A30024C14ADFF874B3DF
:100FC000C04B4FEA8409115D53F8240003F052FA34
:100FD0005BF82400B0EE408A03F05CFC5AF8040B86
:100FE000033403F043FB0EA9B74B28EE008A01EB54
:100FF0000900182C9944B24AD9ED007A67EE887A34
:10100000C0ED007ADCD10B4600229FEDB08A194674
:1010100001320C33D1ED007A082A38EE278AF6D156
:10102000AB4BAC4C1978AC4B186803F023FAAB4BC4
:10103000186803F02FFCAA4BD3ED007A20EE270AA4
:101040008DED060A30EE0A0A204603F03FFDD4ED8E
:101050000C7A38EE278AA34B1B78002B3FD098F8E8
:101060000030002B3BD0DFF8D0920024DFF8CCA278
:10107000DFF8CC82012309F8013BD8F8003003EBFC
:1010800084135AF82320A2F16303012B0FD9964B46
:1010900053F824B0954B1B7813440C3300EE103AF0
:1010A000B8EEC00AFFF7EEFD5846FFF721FE013407
:1010B000032CDFD1D8F800308D4A8E49D05C1A4419
:1010C000013308703F2B92F840008B49C8BF0023C2
:1010D000087092F88010894AC8F800301170884C66
:1010E0000DF10C08DFF850A2DFF8FC9104F10C0BB5
:1010F00054F8040B1AF8011B03F0BCF9F0EE408A17
:1011000059F8040B03F0C6FBA34568EE808AE8ECAF
:10111000018AEDD1DDED037A9DED047A77EE8A7ACE
:10112000784C9FED79BADFF81C9277EE877A9DEDC7
:10113000057ADFF8148277EE877A17EE900AFFF7C8
:101140006BFA59A3D3E90023FFF7BEFAFFF7CEFCF1
:1011500009EE100A206803F09DFBF0EE409A6068EB
:1011600003F098FBA06879EE809A03F093FB614B43
:1011700044F2A7146548197879EE809A03F07AF959
:10118000634A6448536869EE809A634307EE903A75
:101190005360594BF8EEE78AD2ED007A197868EE81
:1011A0008B8A68EEA78A03F065F94846F0EE40AAFC
:1011B000B0EE680A03F08AFC99ED0D0A404603F090
:1011C00085FC554AD8ED0C7A53686AEEA7AA5348B5
:1011D0006343534C07EE903A5360484BF8EEE78A6E
:1011E000D2ED007A197868EE8B8A68EEA78A03F050
:1011F00041F92046B0EE40BAB0EE680A03F066FC52
:10120000D4ED0D8A4748B0EE680A03F05FFC19EE92
:10121000900AFFF701FA26A3D3E90023FFF754FA57
:10122000804689461AEE900AFFF7F6F922A3D3E921
:101230000023FFF749FA02460B4640464946FFF7AE
:101240008DF868EE8B7A8046894617EE900AFFF794
:10125000E3F919A3D3E90023FFF736FA02460B4658
:1012600040464946FFF77AF8FFF740FCB0EE480ADF
:1012700008EE900A294602A8FFF79AFDDDED027AF2
:10128000294BA80039EE279A284AD3ED007A334635
:10129000126839EE289A06EB820229EE279A9A42C2
:1012A00040F073810135E9E59A9999999999A93F97
:1012B000CDCCCCCCCCCCDC3FB81E85EB51B89E3F1E
:1012C00064260024440E0024D032002400000000D4
:1012D000DC24002448210024240E0024E00E0024F5
:1012E000B03200240C140024D40E0024E11D00248C
:1012F0008801002414240024E0230024AC230024CB
:10130000180E0024C80E0024000000301824002409
:10131000B42C0024E4230024AC2C0024B0230024AB
:101320007C20002438200024AC3200245C330024CC
:10133000F80D0024000F0024482400241014002479
:101340000814002404210024C0200024DFF870A227
:101350000024914ADFF86CB2904B4FEA8409115D8A
:1013600053F8240003F086F85BF82400B0EE408ABE
:1013700003F090FA5AF8040B033403F077F90EA93E
:10138000874B28EE008A01EB0900182C9944824A09
:10139000D9ED007A67EE887AC0ED007ADCD10B4691
:1013A00000229FED808A194601320C33D1ED007A7C
:1013B000082A38EE278AF6D17B4C0DF118097B4BB1
:1013C000DFF804B2DFF804A213F8011B54F8040B91
:1013D000019303F04FF85BF8040B03F05BFAFAECAF
:1013E000017A734A20EE270A019B9442A9EC010A74
:1013F000EAD1B3E5DFF8C8A10024674ADFF8C4B139
:10140000664B4FEA8409115D53F8240003F032F86B
:101410005BF82400B0EE408A03F03CFA5AF8040B63
:10142000033403F023F90EA95D4B28EE008A01EB8B
:101430000900182C9944584AD9ED007A67EE887A49
:10144000C0ED007ADCD10B4600229FED560A19460A
:1014500001320C33D1ED007A082A30EE270AF6D19A
:10146000544B0DF11809504C186803F03FFCB0EED6
:10147000408A4E4BDFF850B1DFF850A113F8011B42
:1014800054F8040B019302F0F5FF5BF8040B03F032
:1014900001FAFAEC017A464A20EE270A019B9442AF
:1014A000A9EC010AEAD159E5DFF814A100243A4A6F
:1014B000DFF810B1394B4FEA8409115D53F824006D
:1014C00002F0D8FF5BF82400B0EE408A03F0E2F9A6
:1014D0005AF8040B033403F0C9F80EA9304B28EE78
:1014E000008A01EB0900182C99442B4AD9ED007AA7
:1014F00067EE887AC0ED007ADCD10B4600229FEDC2
:10150000298A194601320C33D1ED007A082A38EEC7
:10151000278AF6D1244C0DF11809244BDFF8A8B026
:10152000DFF8A8A013F8011B54F8040B019302F094
:10153000A1FF5BF8040B03F0ADF9FAEC017A1C4A49
:1015400020EE270A019B9442A9EC010AEAD1DDEDC5
:10155000067A9DED077A77EE8A7A174C9DED080A98
:10156000204677EE877A37EE800A03F0AFFAD4EDA3
:101570000C7AB6EE000A114838EE278A28EE000AE7
:1015800002F0D6FFB0EE408A65E553F8041B014433
:1015900081ED009A83E600BF64260024440E0024F7
:1015A000D032002400000000240E0024DC2400249B
:1015B000300E0024D80D002448210024981E002459
:1015C000F80D0024000F0024E00E0024B0320024A7
:1015D0002DE9F843BC4D2DED048B2B78002B64D105
:1015E000BA4A0220013352F8041B182B0870F9D1B3
:1015F000B74E21249FEDB79ADFEDB78A9FEDBF8AE2
:10160000F0EE490A3068B0EE680A4FF07E5702F0FB
:1016100057FE56F8040BB0EE480A02F0E7FE56F803
:10162000043C013C1F60EBD1AC4AAD48AD490134EC
:1016300052F8043B082C58609960F8D1DFF8B88262
:101640004FF00109A84EDFEDA98A9FEDAC8A58F84A
:10165000043BB0EE680A012183F80090306802F084
:10166000A7FE56F8040BB0EE480A022102F0A0FED5
:10167000B0EE480A042156F8040C02F099FE56F820
:10168000043C013C1F60E2D10824DFED9C8A9FED01
:10169000988AB0EE680A974803F0DEFAB0EE480A7E
:1016A000944803F071FA013CF3D12B78042B65D1F7
:1016B000864A00230120013352F8041B182B0870BE
:1016C000F9D1834E21249FED839ADFED838A9FED2C
:1016D0008B8AF0EE490A3068B0EE680A4FF07E5708
:1016E00002F0EEFD56F8040BB0EE480A02F07EFE62
:1016F00056F8043C013C1F60EBD1784A78487949A0
:10170000013452F8043B082C58609960F8D1DFF896
:10171000E8814FF00109744EDFED748A9FED778AFE
:1017200058F8043BB0EE680A012183F80090306855
:1017300002F03EFE56F8040BB0EE480A022102F019
:1017400037FEB0EE480A042156F8040C02F030FED1
:1017500056F8043C013C1F60E2D10824DFED678AA3
:101760009FED638AB0EE680A624803F075FAB0EE46
:10177000480A604803F008FA013CF3D12A78012AAC
:1017800064D152490023013351F8040B182B027025
:10179000F9D14F4E21249FED4F9ADFED4F8A9FEDF7
:1017A000578AF0EE490A3068B0EE680A4FF07E576B
:1017B00002F086FD56F8040BB0EE480A02F016FE61
:1017C00056F8043C013C1F60EBD1444A444845496B
:1017D000013452F8043B082C58609960F8D1DFF8C6
:1017E00018814FF00109404EDFED408A9FED438A9A
:1017F00058F8043BB0EE680A012183F80090306885
:1018000002F0D6FD56F8040BB0EE480A022102F0B1
:10181000CFFDB0EE480A042156F8040C02F0C8FDD2
:1018200056F8043C013C1F60E2D10824DFED338A06
:101830009FED2F8AB0EE680A2E4803F00DFAB0EE45
:10184000480A2C4803F0A0F9013CF3D12B78032B74
:1018500040F086801D4A00230120013352F8041B0A
:10186000182B0870F9D11A4E21249FED1A9ADFED3A
:101870001A8A9FED228AF0EE490A3068B0EE680AB3
:101880004FF07E5702F01CFD56F8040BB0EE480AEC
:1018900002F0ACFD56F8043C013C1F60EBD10F4A4E
:1018A0000F481049013452F8043B082C58609960E5
:1018B000F8D1DFF844804FF000090B4EDFED0B8AC2
:1018C0009FED0E8A1EE000BFE21D0024000F0024E1
:1018D000440E002400000000CDCCCC3CF80D0024C8
:1018E000CDCCCC3D0080BB44240E0024CDCC4C3D5F
:1018F0000080BB4448210024E00E0024CDCCCC3D28
:101900000000FA4358F8043BB0EE680A012183F85E
:101910000090306802F04CFD56F8040BB0EE480A17
:10192000022102F045FDB0EE480A042156F8040CED
:1019300002F03EFD56F8043C013C1F60E2D1082451
:101940005FED128A1FED128AB0EE680A4D4803F06F
:1019500083F9B0EE480A4B4803F016F9013CF3D185
:101960002A78022A63D148490023013351F8040B35
:10197000182B0270F9D1454D21249FED459ADFEDDA
:10198000458A9FED458AF0EE490A2868B0EE680A5C
:101990004FF07E5602F094FC55F8040BB0EE480A66
:1019A00002F024FD55F8043C013C1E60EBD13B4A9B
:1019B0003B483C49013452F8043B082C586099607C
:1019C000F8D1394F4FF00108384DDFED398A9FEDDE
:1019D000328A57F8043BB0EE680A012183F8008090
:1019E000286802F0E5FC55F8040BB0EE480A022125
:1019F00002F0DEFCB0EE480A042155F8040C02F0B7
:101A0000D7FC55F8043C013C1E60E2D10824DFED10
:101A1000228A9FED288AB0EE680A1A4803F01CF962
:101A2000B0EE480A174803F0AFF8013CF3D1224E5C
:101A30000325224C0127DFED1E8A9FED178A56F8F9
:101A4000043BB0EE680A01211F70206802F0B0FC70
:101A500054F8040BB0EE480A022102F0A9FCB0EEE3
:101A6000480A042154F8040C02F0A2FC54F8043C87
:101A70004FF07E52013D1A60E1D1BDEC048BBDE810
:101A8000F88300BF48210024000F0024440E0024E6
:101A900000000000CDCCCC3CCDCCCC3DF80D0024DA
:101AA000CDCCCC3D0080BB44E00E0024240E0024AD
:101AB000CDCC4C3D0080BB44D40E0024180E002435
:101AC00013B540F20633012401A8ADF804308DF8B7
:101AD000064004F0E5F8214601A804F091F90A2037
:101AE00012F0D8FF07F03CF802B010BD2DE9F04F1E
:101AF0008DB0DFF81091404F002604ACCB46202279
:101B00000021204613F014FACDE902740C23B21020
:101B10003A4DA0465A435BF8041BBA46A818AA5887
:101B200089B200254368520080685B0002F0FE0223
:101B3000400003F0FE03C0B20090314805F06DFF95
:101B400012F0A4FF029B039A43F8040B02930123B3
:101B500002F8013B039212F099FF5AF8043B9633C6
:101B600098420ED998F800305BB1002339F825105F
:101B700023481A46009305F050FF4FF0000388F801
:101B80000030013508F10108202DE4D1072001368D
:101B900012F080FF1A4805F00AFF202EB6D14FF050
:101BA000000A04F1200BC8463E462546012315F8DD
:101BB000012B32B112F06AFF3368963398420BD88A
:101BC00000235D4506F1040608F10408EFD1002B5F
:101BD000E7D00DB0BDE8F08F00230948CDF800A094
:101BE0001A46B8F8001005F018FF054805F0DFFEAA
:101BF00005F801ACE4E700BFD41C0024D40A00249B
:101C000030330024580B0024024B1B780BB1FFF734
:101C10006DBF7047940A00242DE9F04F8DB0DFF8B6
:101C20001491414F002604ACCB46202200212046CF
:101C300013F07EF9CDE902740C23B2103B4DA0469F
:101C40005A435BF8041BBA46A818AA5889B2002563
:101C5000436802EB4202806803EB430300EB400061
:101C6000DBB2C0B2D2B20090314805F0D6FE12F01D
:101C70000DFF029B039A43F8040B0293012302F821
:101C8000013B039212F002FF5AF8043B03F2771370
:101C900098420ED998F800305BB1002339F825102E
:101CA00023481A46009305F0B8FE4FF0000388F869
:101CB0000030013508F10108202DE3D11C20013648
:101CC00012F0E8FE1A4805F072FE202EB4D14FF053
:101CD000000A04F1200BC8463E462546012315F8AC
:101CE000012B3AB112F0D2FE336803F27713984217
:101CF0000BD800235D4506F1040608F10408EED177
:101D0000002BE6D00DB0BDE8F08F00230848CDF8D9
:101D100000A01A46B8F8001005F07FFE044805F050
:101D200046FE05F801ACE4E7D41C0024D40A0024E4
:101D300030330024580B00242DE9F0412DED028BA7
:101D4000ADF5A96D322012F0A5FE03230022C9498A
:101D50006846C94E01F0B2FDC84B69464FF4A9620E
:101D600018466C4613F03BF9C54BD0F8F8243746BB
:101D7000C0480025DFF8C4831A6001F068FDC1483F
:101D8000F0EE400AB0EE408AB7EE000A02F0FCFB2B
:101D9000FEF7B8FFB0EE480A58F8040B0135FEF71D
:101DA00087FFB0EE480A57F8040B02F043FC182DE9
:101DB000F0D1B54F00250135B0EE480A012157F8A2
:101DC000040B02F019FB202DF5D1B04F0025B0EE29
:101DD000480A56F8040B013502F02CFCB0EE480A14
:101DE00057F8040B02F0B4FF082DF0D1A84F0025DE
:101DF000A84EB0EE480A57F8040B0135FEF758FF1D
:101E0000B0EE480A012156F8040B02F0F5FA082D4D
:101E1000EFD1A14F0025A14EB0EE480AA04802F034
:101E200039FEB0EE480A57F8040B0135FEF740FFC3
:101E3000B0EE480A012156F8040B02F0DDFA032D3A
:101E4000EFD1984E4FF0000837463068B0EE480AA0
:101E5000FEF72EFF56F8043B013D83F80080F4D1D5
:101E60009FED910A01253868FEF742FF9FED8F0A2A
:101E70007868FEF73DFF9FED8E0AB868FEF738FFE1
:101E80004FF07E528B4B2946B0EE480A8A481A60C2
:101E90005D608A4B1A605D6002F0AEFA2946B0EED2
:101EA000480A874802F0A8FA2946B0EE480A854851
:101EB00002F0A2FADFED840A9FED840A7E4802F068
:101EC000FFF9B4EE000A7C4802F08AFA7A4B804DA2
:101ED00018469FED800A1D6002F088FADFED7A0A4D
:101EE0009FED7A0A764802F0EBF9B4EE000A7448E6
:101EF00002F076FA724B9FED770A18461D6002F0E9
:101F000075FADFED710A9FED710A6E4802F0D8F99B
:101F10009FED710A6B4802F063FA6A4B9FED6D0A00
:101F200018461D6002F062FAB0EE480A6B4802F0F3
:101F3000B1FDB0EE480A6A4802F0ACFDB0EE480AC6
:101F4000684802F0A7FDB0EE480A674802F0A2FD1B
:101F50009FED660A614802F017FE9FED650A5F4833
:101F600002F07AFE634D5D4B9FED630A5C48DD60D5
:101F700002F00AFE9FED5E0A594802F06DFE584BD2
:101F80009FED5E0A5748DD6002F0FEFD9FED580AA6
:101F9000544802F061FE534B9FED590A5248DD60F0
:101FA00002F0F2FD9FED520A4F4802F055FE4E4BF3
:101FB0005448DD6002F0B0FA192012F06BFD4FF4C6
:101FC0001651514810F08EFA4FF4E13106224F4875
:101FD00012F0B8F9192012F05DFD4D494A4812F08F
:101FE00057FA4FF0FF3249214A4805F001FD002819
:101FF00000F0D080474805F0DAFC192012F04AFDC5
:10200000454B0221454D186812F064FC444B0121F8
:10201000444E186812F05EFC0221286812F05AFC47
:102020000121306812F056FC3F4B0021186812F075
:1020300051FC3E4B0221186812F04CFC0021306824
:1020400012F0B2FC2B68DAB2202A00F3A7803849DC
:1020500003F4E06051F822201043421C18BF1846D8
:102060000023022221466360324B2360324BE3603F
:1020700066E000BF9C390024F80D00247033002472
:102080005C33002460330024440E0024D80D002467
:10209000E00E0024240E0024D40E0024180E002488
:1020A00048210024C80E0024000070420000744241
:1020B00000007842B42C002418240024AC2C002406
:1020C000E4230024B023002400000000CDCCCC3C4D
:1020D0000AD723BC6F12833ACDCC4C3D0421002497
:1020E000C02000247C200024382000240000484325
:1020F0009A99593FCDCC4C3F00409C450000FA4591
:1021000000401C46981E0024044200249C12002417
:102110001C81010830330024D00A0024C40A0024A2
:10212000CC0A0024C00A0024BC0A0024C80A0024E7
:10213000208B0108010C00085D0C0008000F002432
:10214000204BA36012F040FAA3681BB10322214682
:1021500020469847FFF73CFA30211B4801F087FBE7
:102160001A49194801F070FB18220021184812F092
:10217000DFFE184B002180221748197059709970A2
:1021800012F0D6FE0DF5A96DBDEC028BBDE8F04155
:10219000FFF742BD0A2012F07DFC22E703F0C001E8
:1021A000C0290CD1CB2A0ADC0C4A03F03F0103F40E
:1021B000E06052F821100A4A52F821204CE74FF013
:1021C000FF304DE73D0C00089C390024610E0008EB
:1021D0006426002448240024D41C0024F08A01082A
:1021E000208B01082DE9F04F85B0744DDFF8F481A4
:1021F00000AF12F04BFC724B2E46DFF8EC91DFF88B
:10220000ECA1B0FBF3F202FB130012F029FA062155
:102210006FF0050012F033FAFEF7ECF9694B00227B
:10222000FEF79CF8FEF762FC00EE100A664802F02A
:10223000D5F900231C462B6064210020FB6012F0BE
:102240001EFAFB680246A3460134002BB8BF0333D5
:10225000002A4FEAA30303F1010003F1080180F211
:10226000878012F00CFA5AF820303F2B46F8043FD2
:10227000E2DDDFF87C9100260A222146C846534859
:1022800012F05AF90721002012F0F9F9B34549F884
:10229000040B06F10106F5DC0C236343073323F03E
:1022A0000703ADEB030DA30003246E46EA46FB6073
:1022B0002B4652464FF000091846D3F804C00433A9
:1022C0007A6001680120BB60ACEB010112F0D7F924
:1022D0007A68D945BB6809F1010942F8040BEBDBC8
:1022E000FB68013C9A44E3D139482246DFF804C137
:1022F00055F82230A34248D158F8223001325CF818
:102300002330013440F8043B402CF1D10022314C01
:10231000DFF8E0C0114655F8213093423DD158F81E
:102320002130013107335CF82330013244F8043F97
:10233000402AF0D10022284CDFF8B8C0114655F8E9
:102340002130934231D158F8213001310E335CF8FD
:102350002330013244F8043F402AF0D11F4B0122C0
:1023600014371A7000221E4B1A60BD46BDE8F08F6C
:102370000F3A092A04D812F082F959F8203074E78C
:1023800012F07DF958F820306FE756F822100B4410
:10239000A3420CBF63236423B3E756F82100034430
:1023A00093420CBF63236423BFE756F82100034424
:1023B00093420CBF63236423CBE700BF10170024B4
:1023C0009EB801000000284060330024044200242D
:1023D000101400240C1500240C1600240C140024E6
:1023E00008140024080100240800002488000024A8
:1023F00010180024480200240623674A13B51370FE
:102400000C2482F84130654A137082F84130644AE6
:10241000137082F84130634A137082F84130624A87
:10242000624B013C136102F12002FAD160484FF483
:1024300000726049C0F80032C0F82032C0F8403263
:10244000C0F86032C0F8C432C82300F2F62040F869
:102450000A3C12F0C4FD224652232421009456481F
:1024600005F022FA5548FEF7FBFB5548FEF7F8FB4E
:102470005448FEF7F5FB5448FEF7F2FB5348FEF7CD
:10248000EFFB5348FEF7ECFB5248FEF7E9FB5248DE
:10249000FEF7E6FB5148FEF7E3FB5148FEF7E0FB91
:1024A0005048FEF7DDFB5048FEF7DAFB4F48FEF7D9
:1024B000D7FB4F48FEF7D4FB4E48FEF7D1FB4E4802
:1024C000FEF7CEFB4D48FEF7CBFB4D48FEF7C8FBB1
:1024D0004C48FEF7C5FB4C48FEF7C2FB4B48FEF7E5
:1024E000BFFB4B48FEF7BCFB4A48FEF7B9FB4A4826
:1024F000FEF7B6FB4948FEF7B3FB4948FEF7B0FBD1
:102500004848FEF7ADFB4848FEF7AAFB4748FEF7F0
:10251000A7FB4748FEF7A4FB4648FEF7A1FB464849
:10252000FEF79EFB4548FEF79BFB4548FEF798FBF0
:102530004448FEF795FB4448FEF792FB4348FEF7FC
:102540008FFB4348FEF78CFB4248FEF789FB42486D
:10255000FEF786FB4148FEF783FB4148FEF780FB10
:102560004048FEF77DFB4048FEF77AFB3F48FEF708
:1025700077FB3F48FEF774FB3E48FEF771FB3E4B8E
:10258000102201213D481A7021230222009311F0EC
:10259000DFFD02B010BD00BF860100300401003035
:1025A0008200003000000030E03300240820803A30
:1025B000703300240C7D0108303300247C2C00246F
:1025C0004C2C00241C2C0024EC2B0024BC2B0024BD
:1025D0008C2B00245C2B00242C2B0024FC2A0024B0
:1025E000CC2A00249C2A00246C2A00243C2A0024A3
:1025F0000C2A0024DC290024AC2900247C29002496
:102600004C2900241C290024EC280024BC28002488
:102610008C2800245C2800242C280024FC2700247B
:10262000CC2700249C2700246C2700243C2700246E
:102630000C270024DC260024AC2600247C26002461
:102640003426002404260024D4250024A4250024B4
:10265000742500244425002414250024E4240024A7
:10266000AC2400247C2400244C24002418240024BE
:10267000E4230024B0230024981E00249C1200248C
:10268000014805F027B900BF3033002400000000E6
:102690002DE9F04F2DED028BBBB0204C12F0F6F976
:1026A0001F4A236812681344984215D91D4D12F031
:1026B000EDF920602B781C4C23701C4B186812F02D
:1026C000A9F9002814BF012300232B70237819D106
:1026D00013B1174B01221A70164811F02FFC002875
:1026E000154C3FDD134811F075FEC92840F08D826E
:1026F000124B0F4D1B682BB3297861BB0D4811F0AD
:1027000040FC2FE0002BE7D10D4A1370084A1370EC
:10271000FEF75EFF052012F0BDF9DDE7701D002415
:10272000900A0024BB0A0024BA0A0024BC0A002430
:10273000001400249C12002404000024481E0024DD
:10274000E21D002412F0A2F9C94BCA4A1B681268A4
:1027500013449842D0D900260121C748267011F0B1
:1027600010FC2E702378002B40F06082C34B0021B8
:10277000C2480A2505930AAB1C4650F8042B0131C8
:102780006A43082902F5FA7207EE902AF8EEE77A12
:10279000E4EC017AF1D1BA4A1278042A0CD1B6EEEF
:1027A000007A19460022D1ED007A013267EE877A6D
:1027B000082AE1EC017AF6D1B24A00211068013111
:1027C0001C680C32082903F10C03846052F8080CD1
:1027D00053F8084C846052F8040C53F8044C84609D
:1027E000ECD1A94B22ACDFF894B24FF0000A93ED84
:1027F000008A25460FF26829D9E900899AA7D7E906
:1028000000675BF8040B0AF1010AFDF7F3FE42468C
:102810004B460C35FEF782F8FEF768F907EE900A92
:10282000C7EE887A17EE900AFDF7F6FE32463B4671
:10283000FDF794FDFEF75AF9BAF1080F45F80C0CB4
:1028400045F8080C45F8040CDBD1904B00222168B8
:1028500003320C340C3343F80C1C182A54F8081CAF
:1028600043F8081C54F8041C43F8041CEFD1884BAF
:102870000022884801250393864B854C0493864BA0
:1028800014F8016B10F8011B002E40F00E8501B109
:102890001D7001320333082AF2D1804D0027804E8B
:1028A000B146A84600247F4B013459F8042B1B780D
:1028B00058F804AB1344183300EE103AB8EEC00ACF
:1028C000FEF7E0F9784B10EE10BA1868FDF7A4FE99
:1028D000CDE906015846DFF8ECB1FDF79DFE024652
:1028E0000B46DDE90601FDF7EFFECDE90601DBF859
:1028F0000000FDF791FE02460B46DDE90601FDF7FB
:10290000E3FEFEF7F3F800EE100A5046FEF7F0F98A
:10291000032CC8D103370C351036182FC0D1574AB5
:10292000002314461846013352F8041B082B0844B0
:10293000F9D140F2DC534FF4005200215B4E00937A
:102940000F2311F0A6FE0025FDF754FE0022584B80
:10295000FDF7E4FFFEF7CAF808EE100AB0EE480AE9
:102960003068013502F0D3F9B7EE000A56F8040BCF
:1029700002F0D8F9082DF1D14E4BB6EE008A642151
:102980004D4D1A7883ED018A062A28BF0622DA60A7
:102990001E234FF4806200939623206A11F079FE83
:1029A0009628A8BF9620044612F070F82B680A2CCF
:1029B000ACBF1B190A33984240F2A68012F066F8A9
:1029C00028603E4D00243E4E2F46D7F8008003215C
:1029D0006FF0010046F8048B11F051FE40440028CE
:1029E00047F8040B80F267840221012011F047FEB2
:1029F00047F8040C0134082CE7D1DFF8CC80002420
:102A0000DFF8C8904FF00C0A58F8043B55F8042B37
:102A100006930AFB0422234B013459F822201B7829
:102A20001344183300EE103AB8EEC00AFEF72AF944
:102A300010EE100AFDF7F0FD02460B46FDF78EFC86
:102A4000194B06460F461868FDF7E6FD02460B4691
:102A500030463946FDF738FE06460F4638E000BFDF
:102A60000000000000F88F40EC51B81E85EBB13F2C
:102A700004140024000000249C120024741E00246E
:102A8000E21D0024F80D0024600F0024D032002441
:102A90004C1E0024541E002464260024000F002431
:102AA000580D0024E11D00249C0A0024D80D0024A8
:102AB00000002440981E0024241E0024041E00242C
:102AC000E41D0024980A0024E00E0024D80B002402
:102AD000DBF80000FDF7A0FD02460B463046394604
:102AE000FDF7F2FDFEF702F800EE100A0698FEF779
:102AF000FFF8082C88D1BC4ABC4913680B6001332D
:102B0000072BC8BF00231360B94D286AFDF772FD7B
:102B1000B84B0022FDF7D8FDFDF7E8FF00EE100AE4
:102B2000B54802F031F8B54B1C78002C00F0CA8390
:102B3000286AFDF75FFDAAA3D3E90023FDF7EEFEA7
:102B4000FDF7D4FFB1EE047A06EE900AC6EE877A5E
:102B5000AB4AAC4B1278C3ED007A032AAA4BC3ED03
:102B6000007AC3ED017AC3ED027AC3ED037AC3EDB7
:102B7000047AC3ED057AC3ED067AC3ED077A00F057
:102B8000A483A24B1B78A34240F0AA83A04B1C78DD
:102B9000002C40F020849F4E4FF01E09DFF8808209
:102BA000934F35462B684FF46172013448F8043B6B
:102BB0000023CDF80090194657F8040B11F069FD79
:102BC0001D28A8BF1D20082C20EAE07045F8040B42
:102BD000E8D1914F4FF00008904DDFF820A2049A01
:102BE00012F8013B049233B18D4A316852F8082043
:102BF000914240F08783039A1478002C40F03E8580
:102C0000002B00F0D683B9467EE3DFF8F481CA28B2
:102C100098F8003040F09F8033B1002088F8000021
:102C2000FEF7F2FFFEF7D4FC01232370CB2040F225
:102C3000234511F039FE7B4EFDF7CCFC00227A4B88
:102C4000FDF742FDDFF82482FDF750FF9FED770A84
:102C500000EE900A764F13F037F89FED767ADFEDAD
:102C6000767AC920754BE0EE077AF0EEE77AC3ED8D
:102C7000007A11F019FE4FF47A734FF4CD7240F2DE
:102C800021210095044611F004FDA842A8BF284662
:102C90006B4DB0F57A7FB8BF4FF47A70FDF7AAFCA0
:102CA0000022684BFDF73AFEFDF720FF4FF47A73E0
:102CB00040F22122306040F29E21009320464FF4E2
:102CC0006C7311F0E6FCB0F57A7FA8BF4FF47A7010
:102CD000B0F56C7FB8BF4FF46C70FDF78BFC002231
:102CE000584BFDF71BFEFDF701FF574B3860C8221C
:102CF0001B68C8F800306FF40873E0181E23002822
:102D000000934FF00003B8BF4042194611F0C1FCD8
:102D1000B4F50C7F4D4B00F3BB8040F2112294427E
:102D200000F3D88132681A60D8F80030834200F08E
:102D3000CA80474B1B68002B00F0C580C0002321D0
:102D4000C3B244481A46009304F067FE00232221D0
:102D50001A460093AEE0404F6628404D404E3B700F
:102D60002B78337005DC592818DC4C281EDC3F28F2
:102D700020DC98F800203B789A4206D0FEF728FC29
:102D800098F800004D30FEF73FFF287833788342F3
:102D90003FF44AAF4030FEF737FF45E7A0F1640348
:102DA000022B0AD8DFE803F0101464004D3888F8CD
:102DB0000000DEE740382870DBE7154B01225A3867
:102DC0001A70284B1860D4E7274B00221A70D0E7FE
:102DD000FFF708FA0020FEF717FFCAE7AFF30080FD
:102DE0000000000000F88F405C1D0024601D0024DE
:102DF000741E00240000F83F48210024701E0024A7
:102E0000E21D0024D01D0024B0320024711E0024D5
:102E10006C1D0024981D0024580B0024D40A0024A3
:102E2000741D0024D81D00240000503F378EE33E5F
:102E3000D41D00246666E6BF6666E63FAC32002419
:102E4000C41D002400408F40CC1D00249C0A002497
:102E5000481E002430330024E31D0024E11D00241B
:102E6000E01D0024681D0024940A0024C81D0024CD
:102E7000DFF81C930020B04B99F800201A70FEF781
:102E8000C3FE99F8003083F0010389F8003070E741
:102E90003A681A60D8F80030834214D0C00022216A
:102EA000C3B2A6481A46009304F0B7FD00232321BD
:102EB0001A460093A14804F0B0FDA14B1B7813B152
:102EC0009E4804F074FD00232B709E4C9E4A23788C
:102ED0009E4D13709E4E2B78DFF8B89233709D4B49
:102EE000DFF8B4B2186811F095FD00389A4F18BF9A
:102EF0000120DFF8A8A22870CA2011F0D5FC4FF4F9
:102F0000FA634FF4AA7240F2DB1100934FF47A7324
:102F1000804611F0BEFBB0F5FA6FA8BF4FF4FA601F
:102F2000B0F57A7FB8BF4FF47A70FDF763FB0022EB
:102F30008A4BFDF7F3FCFDF7D9FD4FF47A7340F2AD
:102F4000DB12C9F800004FF41671009340464FF4AD
:102F5000FA7311F09EFBB0F5FA6FA8BF4FF4FA6058
:102F6000B0F5FA7FB8BF4FF4FA70FDF743FB0022CB
:102F70007A4BFDF7D3FCFDF7B9FDDBF800306FF4B9
:102F8000ED72CAF800003B601E2308EB0200C82265
:102F90000093002300281946B8BF404211F079FB86
:102FA000B8F5F87F3B68CBF800006D4FC0F2F880B1
:102FB000DAF8002098423A601AD094F80080B8F10C
:102FC000000F15D1C0002021C3B25C481A460093FF
:102FD00004F023FD4346424621215848CDF80080A5
:102FE00004F01BFD564B1B7813B1544804F0DFFC72
:102FF0003378002B40F08B802B7813B1052011F033
:1030000049FD2378F3B1504B1C78564B1B78002BAD
:1030100000F030814FF080433B609CB9C8232121F0
:1030200046481A46009304F0F8FC23462246202125
:103030000094424804F0F1FC414B1B7813B13F4827
:1030400004F0B5FC484D0024484F2E46013457F893
:10305000040B11F029FC46F8040B092CF6D1444B63
:103060001E221A60434A444B117819703E4B434963
:103070001B6AC82BD4BF002301231370404B1A686E
:1030800018460A605A684A60002255F8041B01324B
:103090001E29D4BF00210121082A00F8011BF4D108
:1030A000384C394D22682A6000221146013113F84C
:1030B000010B08290244F9D12260002A40F0EC807B
:1030C0002B68002B3FF452AB11F0E0FC2F4B186043
:1030D000FFF74CBB4FF07E522C781A60002C7FF427
:1030E000F4AE2346224622211448009404F095FCB5
:1030F0002346224623211148009404F08EFC104BF5
:103100001B7813B10D4804F052FC0123DCE695F85E
:103110000080B8F1000F7FF474AF052011F0BAFC05
:10312000237883F0010323700E4B83F800803378FB
:10313000002B7FF466AF5FE70D14002430330024CA
:10314000940A00246E1E00246D1E0024B90A002477
:10315000B80A0024C80A0024641E002400408F40DE
:10316000980A00246C1E0024741E0024340B0024D2
:10317000B00A0024701E0024711E00244C1E00247E
:10318000541E0024481E0024AC0A00240414002409
:103190000C140024C01D0024681E0024BC1D002443
:1031A000B8F5E37F32DCD9F8002098423A601AD0B3
:1031B00094F80080B8F1000F15D1C0002121C3B2EE
:1031C0004A481A46009304F028FC43464246202110
:1031D0004648CDF8008004F020FC454B1B7813B125
:1031E000424804F0E4FB3378002B3FF405AF2B7822
:1031F000002B7FF406AF052011F04CFC2378012250
:1032000083F0010323703B4B1A7090E74FF07E521E
:1032100098423A601AD094F80080B8F1000F15D1A6
:103220004346424620213148CDF8008004F0F5FBAA
:103230004346424621212D48CDF8008004F0EDFBA5
:103240002B4B1B7813B1294804F0B1FB3378002BCA
:103250003FF4D2AE95F80080B8F1000F7FF4D1AE04
:10326000052011F017FC2378002B3FF460AF84F8A1
:1032700000805CE74FF07C533B60002C7FF4E2AEB3
:10328000C823202119481A46009304F0C6FB2346A0
:10329000224621210094CCE611F0F8FB164B186071
:1032A0002368002B7FF462AA0AE700297FF4F1AAC1
:1032B0001970FFF7EEBA0B287FF79CAB0B210820A3
:1032C000FFF794BBDFED0D7A42E40022D3ED007AE4
:1032D000013267EE887A082AE3EC017AF6D150E4ED
:1032E000074B00221A705A709A704FE43033002452
:1032F000940A00246C1E0024DC1D00240000000041
:10330000DC240024B9460024DFF868B3DBF8003081
:103310009AF800002344326859F8041B0134D3F1B1
:10332000000C03F0070389B20CF0070C58BFCCF176
:10333000000303EBC003AF4800EB8303AE4893EDFB
:10334000007A6B6802FB033307EE903A2B68F8EEC5
:10335000E77A02FB033367EE877AFCEEE77ACDED7E
:10336000067A07EE903AAB68F8EEE77A02FB033391
:1033700067EE877AFCEEE77ACDED087A07EE903AB1
:103380009DF82020F8EEE77A67EE877AFCEEE77A80
:10339000CDED097A9DF8243000939DF8183004F0A3
:1033A0003CFB042CB2D1954B1B7813B1924804F02E
:1033B000FEFA039B08F10408103704360133B8F114
:1033C000200F05F10C0503937FF409AC8C4B1B789F
:1033D000002B00F0A180002398461A46059850F86B
:1033E000041B91420590C8BF984603F10103C8BF72
:1033F0000A46092BF2D1834F834E3C78DFF878924E
:10340000824D002C60D1326830212B6801FB0233E1
:1034100059F82330092B40F04581A2460023A1B280
:10342000013475481A46CDF800A004F0F6FA242CB1
:10343000F4D1326830212B68754C01FB023354F80B
:103440002330022B40F05C81D2231A4621216A48A6
:10345000009304F0E2FA32682B683021664801FBE1
:103460000233202154F823306A4C012B0CBFD223A5
:1034700000231A46009304F0D0FA32682B683021FA
:103480005D4801FB0233232154F82330022B0CBF8B
:10349000D22300231A46009304F0BFFA32682B6847
:1034A0003021554801FB0233222154F82330012BEF
:1034B0000CBFD22300231A46009304F0AEFA4E4804
:1034C00004F075FA01233B702B683021326801FB50
:1034D000023259F82220092A40F014814E4A146819
:1034E00084B9A0460023A1B2013443481A46CDF85E
:1034F000008004F092FA242CF4D12B6887F8008025
:1035000001332B603168454A52F821209A42DFBFCF
:1035100000233B4A2B601370414B1B7833B1414B66
:103520001B781BB9404A1370537093703F4D404C49
:103530002B68012B40F0FC8011F0A8FA3D4B3E4A6D
:103540001B6812681344984240F2F28000232B60FB
:103550003A4F3B4E3B7833703A4B186811F05AFAA9
:10356000051E226814BF012300233B70364B1A60EE
:10357000337840F0FF80354EABB111F087FA306000
:10358000082011F087FA23680133022B236040F0F2
:10359000D9802F4B2F4A1D702F4B19681D60116069
:1035A00001222E4B1A7011F071FA2D4A33681268FD
:1035B0001344984201D9FEF783FA2468002C40F0A6
:1035C000E080284B01221A70274B1C70274B1C707F
:1035D0000A4B1B78002B00F00281002C40F0E780A2
:1035E0002146234B18683BB0BDEC028BBDE8F04F81
:1035F00011F0DAB9500A002430330024940A002470
:103600006C1D002401140024681D0024641D002486
:10361000B802002414190024481E0024380A00248B
:103620000D1400240C14002448240024581D0024E8
:10363000401E0024541D00244C0A0024611E002456
:10364000601E0024D00A0024441E00245C1E0024B6
:10365000A90A0024A40A0024341E0024301E0024D9
:10366000B40A0024A80A00243D1E00243C1E0024A5
:10367000CC0A00245C1D002478060024002B7FF473
:1036800098AEB9461C469B4659F8041B00230134EA
:103690005A481A4689B2CDF800B004F0BEF9042C9D
:1036A000F2D180E6DFF888A1DFF888B132683021F6
:1036B0002B6801FB02330C2259F823104A4304EB18
:1036C000810101340AEB02005AF802203BF8211074
:1036D000436802EB8202806803EB830300EB800007
:1036E00003EB830300EB800002EB8202C0B2DBB28B
:1036F0000090D2B2414804F090F9042CD6D198E65B
:103700000023A2E63E49895C00293FF4FBAE424516
:103710007FF4F8AE0024A0460023A1B2013437485C
:103720001A46CDF8008004F078F9242CF4D1E4E6B0
:103730002B68012B7FF70CAF0223324A2360002352
:10374000136004E7012B08D12F4B1D78002D7FF467
:103750002AAFFDF7D7FA2D4B1D702368022B7FF798
:1037600022AF0021284B1970294B2160186811F0F5
:103770001BF918E7002B7FF420AF082011F08AF91D
:103780001BE7012C07D10023224A1370224A147030
:10379000224A13701CE7022C7FF41AAF00231D4A43
:1037A00013701D4A137001221C4B1A7010E7012C74
:1037B0001FD111F06BF91A4D1A4A2B681268134485
:1037C00098420CD911F062F9174B2860174D186810
:1037D0002B784BB1002111F0E7F800232B703BB0A0
:1037E000BDEC028BBDE8F08F214611F0DDF82C70A6
:1037F000F5E7022CF3D10121F3E600BF30330024BA
:10380000541E0024381E0024950A0024301E002473
:10381000C00A0024A80A00243D1E00243C1E0024E7
:103820002C1E0024A00A0024CC0A0024281E0024F8
:10383000D40A0024580B00244FF4E0630A300380BC
:103840000523837002F08CBE043002F012B80430FD
:1038500002F00BB808B5043001F0F6FFD0ED007AA5
:10386000F8EE677AFCEEE77A17EE900A08BD38B5F5
:10387000051D04462DED028B284601F0E8FF284681
:1038800001F0F3FF2046B0EE408AFFF7E3FF07EEBA
:10389000900AF8EE677A88EE277ABDEC028B84ED09
:1038A000007A38BD0221202008B511F013F820203D
:1038B00011F0B0F8B0FA80F0400908BD2DE9F043EE
:1038C000052B0D4690461E46044628BF03264FF0A2
:1038D000010900272DED028B9FB004F0A3F9A5F894
:1038E000088002F067F902F0A9FF5E4B28460E96A9
:1038F0000B9303F10073CDF8449003F540730A97DE
:103900000C934FF44173CDE90F97ADF83430FFF7C6
:10391000C9FF484540F092800823ADF808000390A5
:10392000514A0DEB03018DF80A700493CDE912079B
:1039300005A802F083F8B5F908300AA902A8052BFA
:1039400002BF00230122CDE912230023CDE9023377
:1039500002F0E4FDB5F90830052B03D1424905A872
:1039600001F0EAFFB5F90830042B15D1012300223C
:1039700014A903A81D9314931896ADF85C20CDE903
:1039800019333A4B159303F1012303F57D03CDE978
:103990001B22169302F0C2FD3023CDE90536B5F99E
:1039A00008302E1D042B53D140F60163ADF80430CE
:1039B000019801F06DFF4FF07C5305A93046079345
:1039C000DDE9022301F022FF2846FFF735FF04F16D
:1039D000700204F5F871264B136120329142FBD13D
:1039E000C4F800324FF40072C4F8203204F2F6201A
:1039F000C4F84032C4F86032C4F8C432C8231D4948
:103A0000C4F8EC3211F0EBFA304601F02EFF2846F4
:103A1000B0EE408AFFF71EFF07EE900A41462046AF
:103A2000F8EE677A88EE270A85ED000A00F010FCB0
:103A300020461FB0BDEC028BBDE8F08340F6013399
:103A4000ADF800300098CDE9127901F021FF72E75E
:103A50004FF07E53029A05A93046079301F0C8FE45
:103A6000B2E700BF04020404B838002400010609CC
:103A70000820803A0C7F010806230C4A0C210C48D0
:103A8000137082F841300B4A137082F841300A4AB1
:103A9000137082F84130094A137082F841300022D5
:103AA000074B5A600B2202F02DBF00BF8E0300307F
:103AB000B83800240C0300308A02003008020030BD
:103AC0009C390024014802F097BF00BFB838002499
:103AD00070B52DED028BB0EE408A044684B002250D
:103AE00002231B220121012602F094FEB0EE480AB7
:103AF00004F1100002231C22012102F08BFEB0EE23
:103B0000480A04F51C700D2319221A210095DFEDD7
:103B10001B8ACDE9015502F099F804F522701223B1
:103B200013221421009602F08DF904F28D20172340
:103B300018221121009602F085F90023F0EE680AA0
:103B400004F17000B0EE480A1A46C62101F0DEFF0B
:103B50000023F0EE680AC021B0EE480A1A4604F1CC
:103B6000900001F0D3FFC4F80855C4F80055C4F81C
:103B7000FC5404B0BDEC028B70BD00BF6F12033B60
:103B800030B50225044600230B220C2100F51C70E1
:103B90002DED028B85B0B0EE408ADFED2E8A0095C8
:103BA000CDE9015502F052F804F52570B7EE000A90
:103BB00000231422012102F02DFE04F52970B7EE36
:103BC000000A00231322012102F024FE0423F0EE58
:103BD000680A04F17000B0EE480AC4F8F834C4F87A
:103BE000083501220023C021C4F8045501F08EFFDE
:103BF000F0EE680AB0EE480A04F1900000230122BA
:103C0000C12101F083FFF0EE680AB0EE480A04F12A
:103C1000B00000230122C62101F078FFF0EE680A0F
:103C2000B0EE480A0023012204F1D000C32101F0C4
:103C30006DFF0121172010F04DFE0121172010F01B
:103C400049FE0121112005B0BDEC028BBDE83040DA
:103C500010F040BE6F12033B70B5C0E90023049B17
:103C600004460626C3600B7803724B784372FF2329
:103C700080F820300023191120689A0001EB81118F
:103C800092B2465403F00F002568013301EB800027
:103C9000202B0544A5F80120A5F8032065686E5483
:103CA00061680144A1F80120A1F80320E3D104F1E7
:103CB0001005217A094A41F04001284602F0DEF859
:103CC000284602F024F9617A284641F0400102F0CA
:103CD000DAF82846BDE8704002F00BB9503F0024E6
:103CE000DFED1C7A20EE270A13B5B5EEC00AF1EE1F
:103CF00010FA2CD4B4EEE70AF1EE10FAD8BFF0EEC9
:103D0000407AFCEEE77A0268CDED017A9DF8043046
:103D100000EB43035C8CC1F3071301F00F0103EBCD
:103D2000831303EB81031A44B2F80130C3F30B038E
:103D3000E118C1F30B01A2F8031040F6FE718C42AA
:103D400088BF43F48053A2F8013002B010BDDFED0C
:103D5000027AD6E700007F4300000000072930B553
:103D600004460D462DED028BF0EE608A87B0B0EE72
:103D7000418A29D8B0F90C35022B25D1144A6B465B
:103D800004F535749068D168124A03C3106851680D
:103D9000114A03C31068516803C305F11803204694
:103DA0000DEB030515F8181CFFF79AFFB0EE680A33
:103DB00015F8101C2046FFF793FFB0EE480A15F8DF
:103DC000081C2046FFF78CFF07B0BDEC028B30BD0E
:103DD0000C810108228101082B810108032907B504
:103DE0000FD8B0F90C35022B0BD1074B00F535700D
:103DF000019301F108030DEB030111F8041CFFF717
:103E00006FFF03B05DF804FB0F191A1B072A08B5F2
:103E10000B46114608D8B0F90C25032A04D123B962
:103E200000F53570FFF75CFF08BD012BFCD1C1F137
:103E30000F01F5E7072908B508D8B0F90C35032BB1
:103E400004D1103100F53570FFF74AFF08BD0000BE
:103E5000B0F90C35022B70B504462DED028B1ED146
:103E600000259FED1E8ADFED1D0AE9B20135B0EE97
:103E7000481AB0EE600A2046FFF770FF082DF2D115
:103E800000259FED168AE9B20135B0EE480A2046BA
:103E9000FFF7A4FF042DF6D1BDEC028B70BD032B00
:103EA000FAD100259FED0D8AEEB2B0EE480A00214E
:103EB000204632460135FFF7A9FFB0EE480A3246E8
:103EC00001212046FFF7A2FFB0EE480A3146204606
:103ED000FFF7B0FF082DE7D1DEE700BF00000000CC
:103EE000F8B5D0E9001204460023C0E9002101EB37
:103EF0008300B0F8035002EB83000133A0F80350B5
:103F0000102BF4D1002301EB8300B0F8445002EBF6
:103F100083000133A0F84450102BF4D1FF2304F1A7
:103F2000100784F8203094F92050012D08DC013569
:103F30006DB2022D84F8205003D1FF2384F8203085
:103F4000F8BD6319002605EB85153846197A41F04E
:103F5000400101F098FF05EB86036268F1B201367B
:103F60001A443846B2F80330B2F8012002F004F8DF
:103F7000102EF0D1D7E708B5B0F80C35023B9BB254
:103F8000012B03D800F53570FFF7AAFF08BD00002C
:103F90000C23624A70B52DED028B86B0C0F8003557
:103FA0000623022507260446C0F808354FF480731F
:103FB000B0EE408A05A9ADF814304FF0FF33C0F8D9
:103FC000FC6400F53570C0F824520093544BFFF7A1
:103FD00043FE2046FFF73CFF2046FFF7CCFFB0EE44
:103FE000480A04F51C700E231B221C210095DFEDEE
:103FF0004D8ACDE9015501F029FE0023F0EE680A53
:1040000004F17000B0EE480A1A46C12101F07EFDAD
:104010000023F0EE680A04F19000B0EE480A1A4658
:10402000C42101F073FD0023F0EE680A04F1B00032
:10403000B0EE480A1A46C22101F068FD0023F0EEF6
:10404000680A04F1D000B0EE480A1A46C52101F012
:104050005DFD0023F0EE680A04F1F000B0EE480ABE
:104060001A46C32101F052FD0023F0EE680A04F560
:104070008870B0EE480A1A46C62101F047FD0023B9
:10408000F0EE680A04F52D70B0EE480A1A46C02119
:1040900001F03CFDB0EE480A2B46204608220121E3
:1040A00002F0B8FBB0EE480A2B4604F110000922DA
:1040B000012102F0AFFBB0EE480A2B4604F12000CC
:1040C0000A22012102F0A6FBB0EE480A2B4604F1B9
:1040D00030000D22012102F09DFBB0EE480A2B4674
:1040E00004F140001922012102F094FBB0EE480ACD
:1040F0002B4604F150001A22012102F08BFBB0EE96
:10410000480A2B463246012104F1600006B0BDEC9E
:10411000028BBDE8704002F07DBB00BF920400300E
:10412000100400306F12033B70B5022504461E22B6
:1041300000212B461B262DED028BB0EE408A84B069
:10414000C0F8FC54C0F8F85402F064FBB0EE480A22
:104150002B4604F110001D22002102F05BFB4FF4FE
:104160000073384A03A9ADF80C304FF0FF3304F563
:1041700035701A250093344BFFF76EFD2046FFF78C
:1041800067FE2046FFF7F7FE0121152010F0A2FB85
:104190000121142010F09EFB0121132010F09AFB46
:1041A0000023DFED2A0AB0EE480A1A4604F1700037
:1041B000C12101F0ABFC1C200121C4F81465C4F836
:1041C0001005C4F82C05C4F8185510F083FB3046D0
:1041D0000121C4F8306510F07DFB28460021C4F8A9
:1041E000345510F077FB1022002104F21C5010F01F
:1041F0009FFEB0EE480A04F5F870C22101F0AEFC53
:10420000B0EE480A04F50470C32101F0A7FCB0EE3B
:10421000480A04F50C70CA2101F0A0FCB0EE480A6F
:1042200004F51470C92101F099FC0121172010F048
:1042300051FB0121162004B0BDEC028BBDE870409B
:1042400010F048BB96050030140500306F12033B98
:104250000223A0F80C150139C0F8F8340023C0F887
:104260000835C0F80435C0F8FC34C0F8003503291F
:104270000BD8DFE801F002040608FFF729BCFFF7BE
:1042800087BEFFF751BFFFF77BBC70470623084A84
:10429000137082F84130074A137082F84130064AA1
:1042A000137082F84130054A137082F8413070472C
:1042B00096050030140500309204003010040030E0
:1042C000D0ED047AF4EE407A10B5F1EE10FA04461F
:1042D0002DED048BB0EE409AB0EE608A06D1D0EDA1
:1042E000027AF4EE607AF1EE10FA32D0B5EEC09AAE
:1042F00084ED049AF7EE008A84ED028AF1EE10FA5A
:1043000025DDF2EE040AB0EE480A11F0DDFCDFED27
:10431000127A28EE278AF2EE027AA0EE278ADFEDE3
:104320000F7A38EE278A88EE880A84ED038A38EE01
:10433000C00A11F099FCD4ED0A7AF8EEE77A67EE3C
:10434000897A80EE270A11F02FFC78EEC08AC4ED3E
:10435000078ABDEC048B10BD9A99993EAE47813F08
:10436000D1ED007AF4EE407A10B5F1EE10FA144671
:104370002DED028B18D0B5EEC00A81ED000AB7EE24
:10438000008AF1EE10FA0DDDD0ED0A7AF8EEE77A48
:1043900067EE807ABFEE000A80EE270A11F004FC77
:1043A00038EE408A84ED008ABDEC028B10BD00001F
:1043B000022907D004290BD001290ED1DFED070A0D
:1043C000FFF77EBF00F1200200F11401FFF7C8BF24
:1043D00000F1240200F11801F8E770470000000026
:1043E000014600F120021431FFF7BABF014600F187
:1043F00024021831FFF7B4BF07EE101A194BDFED96
:104400001A0AB8EEC77A10B5C0EE077A04462DED49
:10441000028B8360036143618361144B9FED148AB7
:1044200003600023B0EE480AC0ED030AC0ED010AA4
:10443000FDEEE77A8385C0ED0A7AFFF741FFB0EE23
:10444000480A04F11401204604F12002FFF788FF16
:10445000B0EE480A20460421BDEC028BBDE81040B6
:10446000FFF7A6BF000080BF000000003333333FDA
:10447000CDCCCC3D90F82D30F1B113B9012380F8AB
:104480002C3090F82C3080F82D10022B18D190EDA4
:10449000087AD0ED007A90ED010A77EEC07AA7EEA7
:1044A000870AB5EEC00AF1EE10FA26D50023436064
:1044B000002380F82C300CE0002BE2D00423DEE750
:1044C000042B04D190ED097ADFED117AE3E7012B9B
:1044D00002D09FED100A704790ED010AD0ED037AEB
:1044E00090ED077A77EEC07AA7EE870AF7EE007AAA
:1044F000B4EEE70AF1EE10FA02DC80ED010A704733
:104500000223B0EE670AC0ED017A80F82C307047C4
:104510000AD723BC000000004FF07E534360002305
:104520008360036143610023C0E9063370470000E4
:10453000D0ED017A9FED137A67EEA77A8269013296
:1045400067EE877AFCEEE77A17EE903AC0ED077ACD
:1045500093423CBF80ED040A0023D0ED047A28BFCB
:104560008261FEEEC87AC26838BF836117EE903A66
:104570001341934000EE103ABAEEC80A80ED050AE6
:10458000704700BF0000C042DFED077A002380EDD6
:10459000000A20EE270A4360C0ED020AC0EE207A2E
:1045A000C0ED037A704700BFDB0FC94090ED037A7E
:1045B0000346D0ED017A77EE877A9FED077AF4EE25
:1045C000C77AF1EE10FAA6BF77EEC77A0120002075
:1045D000C3ED017A704700BFDB0FC940DFED067AFB
:1045E00080ED000A20EE270A90ED027AC0EE077AED
:1045F000C0ED037A704700BFDB0FC940B5EEC00ABB
:10460000F0EE407AF1EE10FA11D4B1EE007AB4EE89
:10461000C70AF1EE10FA08DAB6EE007AB4EEC70A6D
:10462000F1EE10FA03D411F0F9BBF7EE007AB0EE18
:10463000670A704700230A4A80ED0E0A0360426051
:10464000C360084A4362036183624361C36283615A
:10465000C36103620363044B82604363704700BF1E
:10466000CDCCCC3E00007A44000080BFD0ED017A72
:1046700090ED027AF5EEC07A2DE9F041F1EE10FAF4
:1046800004462DED088BDFED608AB0EE409A84B0D1
:10469000DFED5E9A58BFF0EE678AD0ED0C7AF4EE4B
:1046A000477AF1EE10FA07D1D0ED0D7AF4EE687A80
:1046B000F1EE10FA00F09580D4ED0E6AB6EE000A25
:1046C00084ED0C7AC7EE267A9FED517A9FED516A00
:1046D00067EEA76A27EE800A66EEA65A26EE877A6C
:1046E000A5EE867A9FED4C6AA7EEC67A9FED4B6ADF
:1046F00037EE067A9FED4A6A67EE867A9FED496A41
:10470000E6EE867ADFED486A37EEA68ADFED477A75
:1047100020EE270A27EE400A11F046FAF7EE007A5B
:10472000C4ED0D8A84ED0F8A77EEC07A87EEA9AAD0
:1047300084ED10AAF1EE007A4FF00208B6EE00BA4E
:1047400068EEA78A68EE888AD4ED087A204694ED50
:10475000038A6F46A7EEE89A04F11005012629EEB8
:10476000290AFFF74BFFD4ED097A30EE670AF0EE25
:10477000487AE0EE0A7ACDED007AC4ED037AB7EC20
:10478000019A2046F5EC01AA29EE290AFFF736FF27
:10479000032EB0EE408A85ED040A2CD095ED050A73
:1047A00038EE408A0136F0EE6A7A042EE8EE0A7A94
:1047B000C7ED007A45ED017AE1D1DDED037AB8F17C
:1047C000010F94ED070AC4ED077A37EE800A20EE58
:1047D0000B0A84ED080A0BD104B0BDEC088BBDE8D0
:1047E000F081F0EE678A90ED0F8A90ED10AAA1E7B4
:1047F0004FF00108A8E715ED010A204620EE290A2E
:10480000FFF7FCFECCE700BF0000000017B7D13770
:104810002DB2FD3E77BEEF3FDD24263F5BB17F3FEB
:104820009CA2EB3FFAED7BC0492E7F3FDB0FC940D6
:10483000DFED167A60EE277AB7EE000AF4EEE07A42
:10484000F1EE10FA0ADD80EEA77AF0EE006A67EE6C
:10485000477AE7EE267A37EEC00A704730EE677A7D
:10486000B4EEE07AF1EE10FA41BF70EEC00A80EECD
:10487000A77AF0EE477AE7EE077A46BF77EE877AB7
:1048800037EE800A9FED020A704700BF83F9223E8F
:1048900000000000037810B504462DED068BD0ED26
:1048A000059AD0ED068A9FED709A072B00F2D7800B
:1048B000DFE803F00431424F5A6698A9B0EE690A66
:1048C00011F072FA79EEA89ADFED687AF4EEE79AC1
:1048D000F1EE10FAC6BF79EEE79A0123002379EED4
:1048E000E88AC4ED059A84F82530F4EEC98AF1EE21
:1048F00010FA40F1B780F4EEC99AF1EE10FAACBFAD
:1049000001230023D4ED017A84F8243020EE270A15
:10491000BDEC068B10BD39EEA97ADFED557ABFEEFE
:10492000000AA7EE270AF6EE007AB0EEC00A30EED3
:10493000670A30EE000AC5E7DFED4D7AB0EE007A87
:10494000BFEE000A69EEA77AA7EE870AB1EE400A29
:10495000B8E7DFED477AB0EE007ABFEE000A69EE05
:10496000A77AA7EE870AADE7F4EEC99AB7EE000A78
:10497000FFEE007AF1EE10FA58BFB0EE670AA1E739
:10498000F4EEC99A9FED3A6AB7EE008ABFEE00AA2C
:10499000F1EE10FA29EE866AB0EE680A48BFB0EE72
:1049A00048AAF0EE460AFFF743FFF0EE480A3AEE57
:1049B00000AAB6EE000A36EE000A11F031F9F0EE68
:1049C000400AB0EE680AFFF733FF3AEE40AA38EE2D
:1049D000680AD4ED077A20EE270AAAEE280A84EDA9
:1049E000070A6FE7DFED220AF0EE007ABFEE006AF9
:1049F00069EEA00AB0EE680AA0EEA76AFFF718FFFA
:104A000036EE400AA2E7F4EEC99A9FED196AF7EE76
:104A1000005ABFEE008AF1EE10FA29EE866AB0EE77
:104A2000680A48BFB0EE658AF0EE460AFFF700FF5D
:104A3000F0EE650A38EE008AB6EE000A36EE000A9D
:104A400011F0EEF8F0EE400AB0EE680AFFF7F0FE63
:104A500038EE400ADFED077A20EE270A32E79FEDB5
:104A6000060A2FE700234DE7DB0F4940DB0FC94063
:104A700083F9223EF4FD343F00000000DFED047AAC
:104A800020EE270AD0ED047A20EE270A704700BFF7
:104A9000DB0FC9400C4B80ED000A43604FF07C53A4
:104AA0008360C3604FF07A530361002343618361E5
:104AB000C361036243628362C3620364036343634B
:104AC000C3638363704700BF00004843F0EE403A81
:104AD00090ED097AD0ED044A90ED055AF0EE476A60
:104AE000D0ED075AE5EE473AD0ED037AE7EE245AC7
:104AF00080ED0B0A27EE276A26EE076A33EEE54AB9
:104B0000E4EE846A35EEC43AE7EE466AB0EE657AC2
:104B1000A5EE660AA4EEA67AB0EE666A67EEA67AFD
:104B200067EEA67A80ED060A30EE475A80ED077AE6
:104B3000A4EE856A80ED085AA6EEE76AF6EE007AE2
:104B400067EE274A37EE457A20EE270A80ED096A9C
:104B5000E5EEA74A26EE276A65EE275A27EE277A62
:104B6000A6EEA76AE4EE275AA3EE277AC0ED0C4A18
:104B7000A3EEA70A80ED0E6AC0ED0D5A80ED0F7A04
:104B800080ED100A704700009FED317AD0ED007A79
:104B9000B4EEC70A10B5F1EE10FA04462DED068BFF
:104BA000B6EE00AAB7EE009A4ED427EE8A7AB4EE9B
:104BB000C07AF1EE10FA01D537EE490A77EEA77AFE
:104BC00084ED010AF5EE008A80EE277A9FED210A36
:104BD000B4EEE87AF1EE10FAC8BFB0EE687A27EECC
:104BE000000A11F0E1F830EE008AD4ED029AF0EEFE
:104BF000680AB0EE690A84ED048A11F065F8F0EEF7
:104C0000007A39EE400A87EE887A30EE000AA8EE84
:104C10004A7AB4EEE77AF1EE10FAD8BFF0EE477AAE
:104C2000F4EEC07AF1EE10FA09DDF0EE680AB0EEAB
:104C3000690A11F049F879EE407A77EEA77AC4ED67
:104C4000057ABDEC068B10BDB0EE470AB6E700BF93
:104C5000BD378635DB0F4940B5EEC00A10B5F1EE21
:104C600010FA04462DED028BF7EE008A39D4B4EE2B
:104C7000E80AF1EE10FAD4BFB0EE408AB0EE688ACE
:104C8000F5EE000A84ED028AB0EE480A11F01CF835
:104C9000F0EE007AD4ED046AB6EE006A38EEC00A8F
:104CA00087EEA67A30EE000AA6EEC67AB4EEE77A70
:104CB000F1EE10FAD8BFF0EE477AB4EEE70AF1EE63
:104CC00010FA09D5F5EE000AB0EE480A10F0FCFF24
:104CD00078EEC07A77EEA77AC4ED057ABDEC028B48
:104CE00010BD9FED018ACBE70000000008B52DED57
:104CF000028BD0ED018A0830B0EE408AFFF7CAFD82
:104D000038EE800A20EE080ABDEC028B08BD10B513
:104D1000044680ED040A0830FFF7B0FE84ED080A6F
:104D200010BD0000B6EE007ADFED087A80FE270A9B
:104D3000F7EE007A80FE670A20EE070A77EEC07A67
:104D400080ED030AC0ED017A704700BF000000004B
:104D500038B52DED028BB7EE008A05464FF07C5337
:104D600080ED000A80ED050A0835C8EE007AC360C0
:104D70009FED110A00230446C36180ED040AC0EDD3
:104D8000067A2846FFF77AFE0023204684ED080ABB
:104D9000237240F20113B0EE480AA385FFF7C2FF69
:104DA000B0EE480A84ED048A2846FFF767FE84EDDA
:104DB000080ABDEC028B38BD0000C842D0E90523CB
:104DC00022B1002B0CBF022004207047181E18BF10
:104DD00001204000704700002DE9F04FC04E89B01F
:104DE00080468A46A6F11409304600AF154601F008
:104DF000A5FB04464846FFF7E1FF834630B3D9F8E8
:104E0000043064699E46002B00F07881AB00EB46CD
:104E1000012C03F1070323F00703ADEB030D6846F4
:104E2000ADEB030D6E463BD0022C13D0002C65D0A9
:104E30002A46314673469847012C00F0C280022C66
:104E400000F08280002C00F0F780DD462437BD465C
:104E5000BDE8F08F99ED0B7A02460023DFEDA16AE1
:104E600008F1040CAB4202F10802E1D258F8231019
:104E700007EE901A5CF823100233F8EEE77A67EE3B
:104E8000A67A67EE877A42ED027A07EE901AF8EE7C
:104E9000E77A67EEA67A67EE877A42ED017AE1E774
:104EA00099ED0B7A01460022DFED8F6A08F1040CC0
:104EB000AA4201F10801BBD258F8223083F4000362
:104EC000A3F5000307EE903A5CF822300232F8EEC8
:104ED000E77A83F40003A3F5000367EEA67A67EE92
:104EE000877A41ED027A07EE903AF8EEE77A67EEBC
:104EF000A67A67EE877A41ED017AD9E799ED0B7AC8
:104F000002462346DFED796A08F10401AB4202F163
:104F100008028DD238F923C007EE90CA31F923C0B8
:104F20000233F8EEE77A67EEA67A67EE877A42ED0B
:104F3000027A07EE90CAF8EEE77A67EEA67A67EE95
:104F4000877A42ED017AE1E799ED046A00239FED4B
:104F5000687A0AF10402DFED676AAB42BFF475AF0D
:104F6000D6ED007A66EE277AF4EEC77AF1EE10FA03
:104F700040F2B080F4EEE67AF1EE10FAA8BFF0EE5F
:104F8000667AFEEEE07A17EE901AD6ED017A66EEBA
:104F9000277A4AF82310F4EEC77AF1EE10FA40F2BD
:104FA0009C80F4EEE67AF1EE10FAA8BFF0EE667A95
:104FB000FEEEE07A083617EE901A42F8231002331C
:104FC000CBE799ED046A00239FED497A0AF10402C8
:104FD000DFED486AAB42BFF438AFD6ED007A66EE3B
:104FE000277AF4EEC77AF1EE10FA6DD9F4EEE67A8C
:104FF000F1EE10FAA8BFF0EE667AFEEEE47A17EE54
:10500000901AD6ED017A66EE277A4AF82310F4EE6C
:10501000C77AF1EE10FA5AD9F4EEE67AF1EE10FA08
:10502000A8BFF0EE667AFEEEE47A083617EE901A24
:1050300042F823100233CDE799ED046A0AF1040225
:105040009FED2B7ADFED2B6ADFED2B5AAC42BFF4DC
:10505000FCAED6ED007A66EE277AF4EEC77AF1EE72
:1050600010FA2BD9F4EEE67AF1EE10FAA8BFF0EEC2
:10507000667A67EEA57AFDEEE77A17EE903AD6EDFE
:10508000017A66EE277A1BB24AF82430F4EEC77A2A
:10509000F1EE10FA15D9F4EEE67AF1EE10FAA8BFA7
:1050A000F0EE667A67EEA57A0836FDEEE77A17EE3F
:1050B000903A1BB242F824300234C7E7F0EE477A48
:1050C000D7E7F0EE477AEDE7F0EE477A95E7F0EEB6
:1050D000477AA8E7F0EE477A53E7F0EE477A67E7BA
:1050E000C039002400000030000000340000003807
:1050F00004FF7FBF04FF7F3F00FEFF4656F8143CCD
:105100003B61002B3FF4A2AE301DC7F80CD001F07C
:1051100023FABBF1020F4FEA8B01F86114BF6A005A
:105120002A460731BBF1020F4FEA820321F0070143
:1051300003F1070323F00703ADEB030DB2FBFBF212
:10514000C7F814D0ADEB030D7B69EC46ADEB010D58
:1051500003EB82036846ADEB010D7969BB616E46D6
:1051600043600CEB820301604FEA8201CDF800C07E
:10517000019308D0BA690B440A4402930B4482603D
:105180000A440393C260012C6BD0022C12D0002C75
:1051900000F0D0806A0831463B699847012C00F046
:1051A000AB81022C00F02181002C00F02082D7F886
:1051B0000CD04BE6DFF834E30021FA69DEF820304A
:1051C0009FEDC77A03EB820C08F104037B60A942D0
:1051D000E0D24B087A69DEED0B6ABBF1020F02EBFD
:1051E00083024FEA8309BA6058F8212007EE902A1B
:1051F000BA68F8EEE77A67EE877A67EEA67AC2EDCC
:10520000007ABA6902EB83037A6852F8212007EE2C
:10521000902ABA60F8EEE77A67EE877A67EEA67AA8
:10522000C3ED007A19D0DCED007A8268F8EEE77AF7
:10523000C3684A444B4467EE877A67EEA67AC2EDAC
:10524000007ADCED017ADEED0B6AF8EEE77A67EEC4
:10525000877A67EEA67AC3ED007A02310CF1080C6A
:10526000B5E7DFF888C20022FB69DCF820109FED6B
:105270009D7A01EB830108F104037B60AA4289D285
:105280004FEA52097B69DCED0B6ABBF1020F03EBBD
:1052900089034FEA890EBB6058F8223083F400037B
:1052A000A3F5000307EE903ABB68F8EEE77A67EEE5
:1052B000877A67EEA67AC3ED007ABB6903EB8909AA
:1052C0007B6853F8223083F40003A3F5000307EE54
:1052D000903AF8EEE77A67EE877A67EEA67AC9ED3C
:1052E000007A24D0836803EB0E090B6883F4000373
:1052F000A3F5000307EE903AC368F8EEE77A9E4400
:105300004B6867EE877A83F40003A3F5000367EE2A
:10531000A67AC9ED007A07EE903ADCED0B6AF8EE5A
:10532000E77A67EE877A67EEA67ACEED007A0232E8
:105330000831A3E7DFF8B4E12146FA69DEF820304E
:105340009FED697A03EB820C08F104037B60A942AC
:10535000BFF420AF4B087A69DEED0B6ABBF1020F98
:1053600002EB83024FEA8309BA6038F9212007EE85
:10537000902ABA68F8EEE77A67EE877A67EEA67A3F
:10538000C2ED007ABA6902EB83037A6832F9212010
:1053900007EE902AF8EEE77A67EE877A67EEA67A4C
:1053A000C3ED007A1DD0BCF90030826807EE903A58
:1053B000C3684A44F8EEE77A4B4467EE877A67EEB3
:1053C000A67AC2ED007ABCF90420DEED0B6A07EE86
:1053D000902AF8EEE77A67EE877A67EEA67AC3ED51
:1053E000007A02310CF1080CB1E7404B0AF10404D9
:1053F0009FED3F7A986A93ED046AFB69DFED3D6AA1
:1054000000EB83000023AB42BFF4D1AE5A083168F1
:1054100001EB82014FEA820CD1ED007A66EE277A29
:10542000F4EEC77AF1EE10FA40F27F81F4EEE67AFC
:10543000F1EE10FAA8BFF0EE667A7168FEEEE07A3F
:10544000614417EE902AD1ED007A4AF8232066EEE7
:10545000277AF4EEC77AF1EE10FA40F26981F4EEA1
:10546000E67AF1EE10FAA8BFF0EE667AFEEEE07A88
:10547000BBF1020F17EE902A44F823202DD0B1681B
:105480006144D1ED007A66EE277AF4EEC77AF1EE48
:1054900010FA40F25081F4EEE67AF1EE10FAA8BF6D
:1054A000F0EE667AF268FEEEE07A6244C0ED007AD1
:1054B000D2ED007A66EE277AF4EEC77AF1EE10FAB2
:1054C00040F23C81F4EEE67AF1EE10FAA8BFF0EE7D
:1054D000667AFEEEE07AC0ED017A0233083092E798
:1054E000000000300000003400000038AC39002417
:1054F00004FF7FBF04FF7F3F924B0AF104049FED3E
:10550000927A986A93ED046AFB69DFED906A00EB8A
:1055100083000023AB42BFF44AAE5A08316801EB66
:1055200082014FEA820CD1ED007A66EE277AF4EE22
:10553000C77AF1EE10FA40F2EC80F4EEE67AF1EE82
:1055400010FAA8BFF0EE667A7168FEEEE47A614464
:1055500017EE902AD1ED007A4AF8232066EE277ADA
:10556000F4EEC77AF1EE10FA40F2D680F4EEE67A65
:10557000F1EE10FAA8BFF0EE667AFEEEE47ABBF127
:10558000020F17EE902A44F823202DD0B168614411
:10559000D1ED007A66EE277AF4EEC77AF1EE10FAD2
:1055A00040F2BD80F4EEE67AF1EE10FAA8BFF0EE1C
:1055B000667AF268FEEEE47A6244C0ED007AD2EDDB
:1055C000007A66EE277AF4EEC77AF1EE10FA40F22E
:1055D000A980F4EEE67AF1EE10FAA8BFF0EE667A52
:1055E000FEEEE47AC0ED017A0233083092E7554BC3
:1055F0000AF104009FED547A996A93ED046AFB69FD
:10560000DFED526A01EB8301DFED515AAC42BFF48A
:10561000CEAD6308326802EB83024FEA830CD2ED11
:10562000007A66EE277AF4EEC77AF1EE10FA64D9C2
:10563000F4EEE67AF1EE10FAA8BFF0EE667A67EEC5
:10564000A57A72686244FDEEE77A17EE903AD2EDE1
:10565000007A66EE277A1BB24AF82430F4EEC77A55
:10566000F1EE10FA4CD9F4EEE67AF1EE10FAA8BF9A
:10567000F0EE667A67EEA57ABBF1020FFDEEE77AEF
:1056800017EE903A1BB240F8243033D0B26862442F
:10569000D2ED007A66EE277AF4EEC77AF1EE10FAD0
:1056A00031D9F4EEE67AF1EE10FAA8BFF0EE667AA0
:1056B00067EEA57AFDEEE77A17EE903A1BB20B6023
:1056C000F3686344D3ED007A66EE277AF4EEC77A86
:1056D000F1EE10FA1AD9F4EEE67AF1EE10FAA8BF5C
:1056E000F0EE667A67EEA57AFDEEE77A17EE903A6D
:1056F0001BB24B600234083188E7F0EE477A9EE730
:10570000F0EE477AB6E7F0EE477AD1E7F0EE477A67
:10571000E8E7F0EE477A17E7F0EE477A2DE7F0EE8C
:10572000477A46E7F0EE477A5AE7F0EE477A84E6A2
:10573000F0EE477A9AE6F0EE477AB3E6F0EE477A73
:10574000C7E600BFAC39002404FF7FBF04FF7F3FE2
:1057500000FEFF467FB5044601A8089E04F1080537
:1057600080E80E0007C885E80B00D4ED047AF5EE5A
:10577000C07AF1EE10FA02DC012004B070BDF7EE41
:10578000006A86EEA77A84ED0B7A002EF4D02046CC
:1057900040F8146F00F0D2FE03690020E360024B72
:1057A000E361024B6362E8E7182600301806003018
:1057B000836937B504460D4643B18368002218302B
:1057C00000929B000269816800F0BAFEA36804F1B0
:1057D0001400064A9B000092626AE16900F0B0FE84
:1057E00000202560606003B030BD00BFD94D0008C7
:1057F00007B503460448186000920EC9FFF7AAFFD8
:1058000003B05DF804FB00BFAC390024F0B50B4DCC
:1058100087B017461E46056003AC07C984E8070039
:105820000097284694E80E00FFF794FF044B0020F1
:10583000AE612B62034BAB6207B0F0BDAC39002404
:105840001836003018160030006808307047B1F57F
:10585000806F03680A4628BF4FF48062B1F5806FFD
:105860009A6094BF0020012070470068143000F057
:1058700070BE08B50068FFF79BFF002008BD000060
:10588000024B0022C3E90522704700BFAC39002457
:105890001FB50124ADF80C0003A8ADF80E4000F0D0
:1058A000FFF9214603A800F0ABFA204600F0F2FF12
:1058B000002103A800F0A4FA204600F0EBFF2146E7
:1058C00003A800F09DFA04B010BD70B50E46017932
:1058D000044600684908154601F0C4F820683146BE
:1058E00003681B6898470021206801F066F90122CF
:1058F00021792068D14001F0D6F9206803685B69FE
:1059000098472870002070BD70B50E460179044696
:1059100000684908154601F0A5F82068314603687B
:105920001B6898472068294603681B6898472068C9
:1059300001F0BEF9002070BD37B50446084621606D
:105940002E4901F06DF820681B221A230021C0E9BE
:10595000212301F073FA8C230DF1050240212371FC
:105960002046FFF7B2FF9DF805204021204602F0B7
:105970007F02FFF7C9FF042000F08CFF0DF1050244
:1059800040212046FFF7A1FF9DF805204021204639
:1059900002F0BF02FFF7B8FF042000F07BFF0DF11B
:1059A000060243212046FFF790FF0DF10702482130
:1059B0002046FFF78AFF9DF807509DF806204321F7
:1059C00045F00105204642F00102FFF79DFF2A46FF
:1059D00048212046FFF798FF0DF10502402120469F
:1059E000FFF773FF9DF805204021204602F0CF020B
:1059F000FFF78AFF002003B030BD00BF801A060009
:105A000070B5154604460E46017C006801F022F888
:105A10002068C5F3002343EA46010368C9B21B6846
:105A200098472068E9B203681B689847206801F02E
:105A30003FF90A2000F02EFF002070BD38B5034664
:105A40000446154643F8042B07C983E80700284697
:105A50002D4900F0E5FF20681B2274230021C0E9D6
:105A6000212301F0EBF9A37900220F211A332046FC
:105A70002374FFF7C5FF172200212046FFF7C0FF60
:105A8000172201212046FFF7BBFF002202212046FA
:105A9000FFF7B6FF002203212046FFF7B1FF1222D5
:105AA00004212046FFF7ACFF002205212046FFF726
:105AB000A7FF237906212046002B14BF6222422231
:105AC000FFF79EFF07212046D4E902231A4363799A
:105AD00042EA4312237983F0010342EA8312D2B2ED
